:04000000803114280F
:100008007E1480314E01161C0A280B2812280C1C5D
:100018000E280F2812288131D62180317E10090040
:10002800803116284001AF01B001B101B2017E1044
:10003800400180311F28813180218031F330400117
:10004800A9000030AA008131D02180310B108B1714
:100058000B17400198169A111A120030AE000030A2
:10006800AD000030AC000030AB0040013208031D89
:1000780048283108031D48283008031D48286430E3
:100088002F02031848284928622801304001AF0789
:100098000030B03DB13DB23D3208031D5F28310844
:1000A800031D5F283008031D5F2864302F02031CDE
:1000B8005E285F28622840019A111A1240010C1923
:1000C8006628672870280030AE000030AD00003088
:1000D800AC000030AB0093280130AB070030AC3DDA
:1000E800AD3DAE3D2E08031D84282D08031D842830
:1000F800E8302B0203302C3B031C832884289328E8
:1001080000304001AE000030AD000030AC000030DF
:10011800AB00981241011D1052018C13630053303B
:10012800890B9428000039288031142800304001B8
:10013800A3000030A2000030A1000030A000770822
:100148007604750474040319AA28AB28EA28013038
:10015800A400B7280130F435F50DF60DF70D890B1D
:10016800AF280130A407F71FBA28BB28AE280130F2
:10017800A035A10DA20DA30D890BBC2877087B0221
:10018800031DD02876087A02031DD0287508790245
:10019800031DD02874087802031CD328D428DD282E
:1001A8007408F8027508F93B7608FA3B7708FB3BB8
:1001B80020140130F736F60CF50CF40C890BDE2808
:1001C8000130A402031DE928EA28BB282308F70008
:1001D8002208F6002108F5002008F4000800400174
:1001E800981641011D1452018C170430890BFA2806
:1001F8003E3081316821803170084001A5007108C6
:10020800A600A701A8012808F7002708F600260875
:10021800F5002508F4000030FB001030FA0000302B
:10022800F9000030F80080319A2080317508FD000F
:100238007408FC0008307D02993003197C02031809
:10024800262927292A2940019A15392909307D02AA
:10025800613003197C0203183229332937294001F8
:100268009A151A16392940011A160030B2000030C2
:10027800B1000030B0000030AF000800203040016D
:1002880098009A01173092002730940013307E01AD
:10029800B8002630CE000430B9000130CF00BA01D2
:1002A800D0013730BB003F30D1003F30BC003F3079
:1002B800D20002307D0190007E01BD01BE01BF0168
:1002C800D301D401D5010800F3007308F200F20D40
:1002D800F20D41011D087206033972069D001D14B6
:1002E800000041019D149D187A297B2977291C0853
:1002F800F1001B08F00008008131C82181318131EB
:10030800422181318131BD2181318131DC2181312D
:100318008131962181318131E02181318131A321DF
:10032800813108004F0196018030970047309800CE
:100338003F309900D1309A001E309B0008004E01D2
:100348000C10E3304001A9000130AA008131D0210E
:1003580081314E0116140800400133083404031992
:10036800B629B729BC2934088A0033080A00813124
:100378000800D03041019E009B019C019F01F9308B
:100388009D004E010D100800603051018D008F0155
:10039800910193019201080040012A08B40029083C
:1003A800B30008004E010C108131B02181310800E2
:1003B800C13052018C00080051018C01080008006E
:020000040001F9
:0A000E00EC3FBE3F9F3FFF3FFF3F66
:00000001FF
